:020000040800F2
:10000000B807002049020008A907000853060008A5
:10001000A5070008FB020008F50F0008000000001B
:100020000000000000000000000000009D08000823
:10003000FF02000800000000390800086102000803
:1000400063020008630200086302000863020008FC
:1000500063020008630200086302000863020008EC
:1000600063020008630200086302000863020008DC
:1000700063020008630200086302000863020008CC
:1000800063020008630200086302000863020008BC
:10009000630200086302000863020008010300080D
:1000A000630200086302000863020008630200089C
:1000B000350A000863020008410C000863020008CA
:1000C000630200086302000863020008630200087C
:1000D000630200086302000863020008630200086C
:1000E000630200086302000863020008630200085C
:1000F000630200086302000863020008630200084C
:100100006302000863020008E50C000863020008AF
:10011000630200086302000863020008630200082B
:10012000630200086302000863020008630200081B
:10013000630200086302000863020008630200080B
:1001400063020008630200086302000863020008FB
:1001500063020008630200086302000863020008EB
:1001600063020008630200086302000863020008DB
:1001700063020008630200086302000863020008CB
:10018000630200086302000800F002F800F04CF877
:100190000AA090E8000C82448344AAF10107DA45E2
:1001A00001D100F041F8AFF2090EBAE80F0013F0E8
:1001B000010F18BFFB1A43F0010318470C0F000092
:1001C0002C0F00000A4410F8014B14F00F0508BF73
:1001D00010F8015B240908BF10F8014B6D1E05D013
:1001E00010F8013B6D1E01F8013BF9D1641E03D0EC
:1001F000641E01F8015BFBD19142E4D3704700001B
:100200000023002400250026103A28BF78C1FBD81F
:10021000520728BF30C148BF0B6070471FB500F0C0
:100220004EFF1FBD10B510BD00F031F81146FFF7AD
:10023000F5FF00F02EFF00F04FF803B4FFF7F2FFD8
:1002400003BC00F053F80000094880470948004704
:10025000FEE7FEE7FEE7FEE7FEE7FEE7FEE7FEE776
:10026000FEE7FEE704480549054A064B70470000D3
:10027000CD09000889010008B8010020B807002056
:10028000B8030020B80300207047704770477546D8
:1002900000F028F8AE4605006946534620F00700F6
:1002A000854618B020B5FFF7DDFFBDE820404FF0D0
:1002B00000064FF000074FF000084FF0000B21F050
:1002C0000701AC46ACE8C009ACE8C009ACE8C0091D
:1002D000ACE8C0098D4670470446AFF30080204665
:1002E000FFF7ABFF00487047580100200149182074
:1002F000ABBEFEE726000200704700BFFEE7704776
:1003000010B5202000F0DAF878B1202000F0D0F805
:1003100062480068401C61490860062801D100203D
:1003200008605E4800785E49C870402000F0C6F85A
:1003300058B3402000F0BCF85A480068401E5949A4
:100340000860012801DA64200860564800680A2124
:1003500090FBF1F201FB120051490870514800680E
:100360000A2190FBF1F090FBF1F201FB12004C49E5
:1003700048704C480068642190FBF1F00A2190FB22
:10038000F1F201FB120046498870802000F096F8D7
:10039000D0B1802000F08CF840480068032807DACC
:1003A0003E480068404908603E48006800F08EFB07
:1003B0003A480068022807DD384800683B49086071
:1003C0003848006800F0DEFC4FF4807000F076F8EA
:1003D00070B34FF4807000F06BF832480068401F33
:1003E0003049086008460068012801DA6420086086
:1003F0002C4800680A2190FBF1F201FB1200284909
:100400000870284800680A2190FBF1F090FBF1F297
:1004100001FB12002249487022480068642190FBC9
:10042000F1F00A2190FBF1F201FB12001C498870E7
:100430004FF4007000F042F870B34FF4007000F019
:1004400037F8184800680A381649086008460068F6
:10045000012801DA64200860124800680A2190FB34
:10046000F1F201FB12000E4908700E4800680A21E3
:1004700090FBF1F090FBF1F201FB1200084948708B
:1004800008480068642190FBF1F00A2190FBF1F22A
:1004900001FB12000249887010BD00000800002016
:1004A000520100200C000020000000200400002069
:1004B0000149086070470000143C014001460020DB
:1004C0000022074B1B6803EA0102054B14331B682B
:1004D0000B4013B10AB1012000E00020704700007A
:1004E000003C0140002123498279002A3AD00A4683
:1004F000126803689A430B461A600A1D1268036863
:100500009A430B1D1A60027911440A6803681A4362
:100510000A60184A0832126803689A43154B083378
:100520001A601A1D126803689A43124B0C331A6042
:100530004279102A0ED11A1F126803681A430D4B14
:1005400008331A601A1D126803681A43094B0C33EA
:100550001A600DE00749427911440A6803681A439A
:100560000A6005E0027911440A6803689A430A6048
:1005700070470000003C0140F0B50A46002100230E
:10058000002400BF3DE0012505FA01F3156805EAE6
:1005900003049C4234D105684F000326BE40B54396
:1005A000056015794E00B54006683543056015793C
:1005B000012D02D01579022D16D185684F00032632
:1005C000BE40B543856055794E00B54086683543D9
:1005D0008560456801268E40B5434560456896793B
:1005E0008E40B6B235434560C5684F000326BE4015
:1005F000B543C560D5794E00B540C6683543C56082
:10060000491C1029BFD3F0BDF0B5002300244D07CD
:10061000ED0E02FA05F3CE1000F1200555F8265034
:100620004E07F70E0F26BE40B543CF1000F120064F
:1006300046F82750CE1000F1200555F8265045EA1F
:100640000304CE1000F1200545F82640F0BD4161BD
:10065000704700BFFEE700001CB50121082000F034
:10066000EDF84FF47870009000208DF80400012020
:100670008DF8070069460248FFF77EFF1CBD0000A9
:10068000000C02401CB50121880300F0F7F801219D
:10069000880300F0F3F80521032000F001F9202081
:1006A000009000208DF804000C208DF8050001203A
:1006B0008DF806006846FFF715FF0121880300F05A
:1006C000DDF80621032000F0EBF840200090002028
:1006D0008DF804000C208DF8050001208DF806002F
:1006E0006846FFF7FFFE0121880300F0C7F80721E5
:1006F000032000F0D5F88020009000208DF8040041
:100700000C208DF8050001208DF806006846FFF7E3
:10071000E9FE0121880300F0B1F80821032000F070
:10072000BFF84FF48070009000208DF804000C207A
:100730008DF8050001208DF806006846FFF7D2FE0F
:100740000121880300F09AF80921032000F0A8F89D
:100750004FF40070009000208DF804000C208DF8FC
:10076000050001208DF806006846FFF7BBFE1CBDA2
:100770001CB50121102000F061F841F6FF600090E7
:1007800001208DF8040000208DF806008DF805008A
:100790008DF8070069460248FFF7EEFE1CBD000019
:1007A0000010024000BFFEE77047000070B5002156
:1007B00000230F22C4781CB3174C246804F4E064AF
:1007C000C4F5E064C4F30721C1F10404E3B20A41B3
:1007D00044789C40E1B28478144021430C07210EF8
:1007E0000E4C05786155047804F01F050124AC40D7
:1007F00005786D11AD0005F1E025C5F8004109E06F
:10080000047804F01F050124AC40054D06787611EC
:1008100045F8264070BD00000CED00E000E400E06B
:1008200080E100E002490143024A11607047000084
:100830000000FA050CED00E07047000029B1064AFF
:1008400012680243044B1A6004E0034A12688243B0
:10085000014B1A60704700003038024029B1064A47
:1008600012680243044B1A6004E0034A1268824390
:10087000014B1A60704700004038024029B1064A17
:1008800012680243044B1A6004E0034A1268824370
:10089000014B1A6070470000443802407047000066
:1008A00030B500228B071C0F0F2303FA04F20B4B09
:1008B0008C1053F824309343084C8D1044F82530A5
:1008C00023468C1053F824308C07240F00FA04F4CC
:1008D0002343024C8D1044F8253030BD08380140C8
:1008E0000CB50020019000903448006840F480303E
:1008F0003249086000BF3148006800F400300090C1
:100900000198401C0190009818B90198B0F5A06FAB
:10091000F1D12A48006800F4003010B101200090A5
:1009200001E0002000900098012846D12348403083
:10093000006840F08050214940310860204800683C
:1009400040F480401E4908601C48083000681B497C
:10095000083108600846006840F400400860084616
:10096000006840F4A05008601648091F0860081F7E
:10097000006840F08070091F086000BF0F480068E1
:1009800000F000700028F9D040F205600E490860C0
:100990000A480830006820F0030008490831086060
:1009A0000846006840F00200086000BF03480830B5
:1009B000006800F00C000828F8D10CBD0038024097
:1009C0000070004008544007003C024010B5154834
:1009D000006840F47000134908601348006840F054
:1009E00001001149086000200F49083108600E48D5
:1009F00000680E4908400C4908600D48091D086050
:100A0000081F006820F48020091F086000200649A4
:100A10000C310860FFF764FF4FF000600149803936
:100A2000086010BD88ED00E000380240FFFFF6FED0
:100A30001030002410B50121880700F0D6F90028F5
:100A400035D00121880700F0C1F919480068401C21
:100A500017490860642801D1002008601548006823
:100A600038B91548124A1268815C144800F07BFAC4
:100A70001DE010480068012807D111480C4A12688F
:100A8000815C0E4800F06FFA11E00A480068022805
:100A900007D10C48064A1268815C084800F063FAE6
:100AA00005E009200849087048708870C87010BDBA
:100AB000100000200000002018000020000400406A
:100AC0007C000020E0000020520100203EB50446DA
:100AD00001210846FFF7C2FE0F20ADF8000042F2E8
:100AE000107090FBF4F0401E01900020ADF8020061
:100AF000ADF8080069464FF0804000F039FA012255
:100B00001146900700F082F90121880700F061F991
:100B10003EBD000000B58BB001210220FFF78EFE24
:100B200001210220FFF79AFE022200211D48FFF753
:100B30006BFD0120099002208DF8280000208DF81F
:100B40002A0001208DF82B008DF8290009A91548ED
:100B5000FFF712FD632007900120ADF81800002078
:100B6000ADF82000ADF81A0006A90F4800F000FA11
:100B70007020ADF804000120ADF806005A20039063
:100B80000020ADF8100001A9074800F049F908213C
:100B9000054800F095F90121034800F01AF90BB05F
:100BA00000BD0000000402400004004000B58BB00E
:100BB00001210220FFF742FE01210220FFF74EFE35
:100BC000022201211C48FFF71FFD022009908DF829
:100BD000280000208DF82A0001208DF82B008DF8C8
:100BE000290009A91448FFF7C7FC632007900120DA
:100BF000ADF818000020ADF82000ADF81A0006A9E5
:100C00000E4800F0B5F97020ADF804000120ADF8F1
:100C100006001E2003900020ADF8100001A907482F
:100C200000F058F90821054800F090F90121034827
:100C300000F0CFF80BB000BD0004024000040040FB
:100C400010B50121114800F0D0F8E8B101210F489A
:100C500000F0BCF80E480F4A1278805C0E4A105C17
:100C60000E4A0C4B1B78D25C40EA422081B20C4801
:100C7000FFF7EDFC07480078401CC0B2054908703A
:100C8000042801D30020087010BD000000080040B7
:100C90005201002056010020440100204E01002096
:100CA000001002400EB501210420FFF7D7FD0F20F0
:100CB000ADF8000040F2E73001900020ADF80200EE
:100CC000ADF808006946064800F052F901221146C5
:100CD000034800F09BF80121014800F07AF80EBDAE
:100CE0000008004010B501211E4800F07EF80028E1
:100CF00036D001211B4800F069F81B480068401CF1
:100D000019490860642801D100200860174800686C
:100D1000032807D11648144A1268815C154800F070
:100D200024F91DE011480068042807D112480E4A32
:100D30001268815C0F4800F018F911E00B48006858
:100D4000052807D10D48084A1268815C094800F05F
:100D50000CF905E009200A49087048708870C870CD
:100D600010BD0000000C0040140000200400002012
:100D700018000020000400407C000020E00000205B
:100D8000520100203EB5044601210820FFF766FD10
:100D90000F20ADF8000042F2107090FBF4F0401EFE
:100DA00001900020ADF80200ADF808006946064841
:100DB00000F0DEF801221146034800F027F8012177
:100DC000014800F006F83EBD000C0040CA43028214
:100DD000704721B1028842F00102028004E00288DB
:100DE0004FF6FE731A400280704730B5024600206D
:100DF00000230024158A05EA0103958905EA010408
:100E000013B10CB1012000E0002030BD1AB183897C
:100E10000B43838102E083898B4383817047000009
:100E200070B5002400220023058C4FF6FF66354084
:100E30000584028C8388848B4FF68F752C404FF687
:100E4000FC752C400D882C434FF6FF552A408D89A8
:100E50004FF6FF7606EA05252A434D8806EA052562
:100E60002A43154DA84202D0144DA8421DD14FF27D
:100E7000FF752A40CD894FF6FF7606EA05252A43FD
:100E80004FF6FF352A408D8806EA05252A434EF69F
:100E9000FF752B404DF6FF752B400D8A06EA0515B0
:100EA0002B434D8A06EA05152B43838084838D6886
:100EB000C563028470BD00000000014000040140D1
:100EC0000A460021818B4FF6F77319401143818345
:100ED0007047000070B5002200230024058C4EF6F8
:100EE000FF7635400584038C8488828B48F6FF7535
:100EF0002A404FF6FF452A400D884FF6FF7606EA56
:100F000005252A434DF6FF752B408D8906EA0535E8
:100F10002B434D8806EA05352B430A4DA84202D0E3
:100F2000094DA84208D14BF6FF752C400D8A4FF6AB
:100F3000FF7606EA85152C43848082838D680564DC
:100F4000038470BD00000140000401400A460021F6
:100F5000818B4FF2FF7319404FF6FF7303EA0223B0
:100F6000194381837047C163704701647047000073
:100F700000220288184B98420ED0184B98420BD092
:100F8000B0F1804F08D0164B984205D0154B9842CF
:100F900002D0154B984204D14FF68F731A404B88FC
:100FA0001A43124B984207D0114B984204D04FF687
:100FB000FF431A400B891A4302804B68C3620B88B7
:100FC0000385054B984202D0044B984201D18B7A9D
:100FD0000386012383827047000001400004014022
:100FE0000004004000080040000C004000100040D9
:100FF0000014004000BFFEE708B54FF4A060FFF703
:1010000011FC1D208DF8000002208DF801008DF8E4
:10101000020001208DF803006846FFF7C7FB1C2083
:101020008DF8000002208DF8010001208DF80200EB
:101030008DF803006846FFF7B9FB32208DF80000F9
:1010400002208DF8010001208DF802008DF80300C8
:101050006846FFF7ABFB17208DF8000000208DF8E5
:1010600001008DF8020001208DF803006846FFF7AB
:101070009DFB1E208DF8000002208DF8010003204A
:101080008DF8020001208DF803006846FFF78EFB03
:1010900008BDFFF76DFBFFF7DFFAFFF7F3FAFFF785
:1010A00001FEFFF737FDFFF781FDFFF7A5FF642085
:1010B000FFF70CFD6420FFF765FE00BFFEE74FF071
:1010C0004070E1EE100A7047E810000800000020B0
:1010D00058010000C401000828120008580100202F
:1010E0006006000000020008518203C264604935B6
:1010F000383B3E414447494C4F515356585A5B5D2B
:101100005E606161626363636363626161605E5DCF
:101110005B5A585653514F4C494744413E3B383532
:10112000322E2B2825221F1C1A171412100D0B0902
:1011300008060503020201307B01020203050608CE
:10114000090B0D101214171A1C1F2225282B2E31E3
:1011500000020406080A0C0E10121416181A1C1E9F
:1011600020222426282A2C2E30333537393B3D3F88
:1011700041434547494B4D4F51535557595B5D5F6F
:10118000616363615F5D5B59575553514F4D4B49E7
:10119000474543413F3D3B39373533302E2C2A28D4
:1011A000262422201E1C1A18161412100E0C0A08CF
:1011B00006040230720102030405060708090A0B3F
:1011C0000C0D0E0F101112131415161718191A1BE7
:1011D0001C1D1E1F202122232425262728292A2BD7
:1011E0002C2D2E2F303132333435363738393A3BC7
:1011F0003C3D3E3F404142434445464748494A4BB7
:101200004C4D4E4F505152535455565758595A5BA6
:101210005C5D5E5F606162633F065B4F666D7D078C
:081220007F6F0E0D0B07420168
:040000050800018965
:00000001FF
